:100000005CC0000082C0000080C000007EC0000014
:100010007CC000007AC0000078C0000076C00000FC
:1000200074C0000072C0000070C000006EC000000C
:100030006CC000000C94990A68C0000066C0000003
:100040000C94880D62C000000C943F100C94711049
:100050005CC000005AC0000058C0000056C000003C
:1000600054C0000052C0000000000008000201005F
:100070000003040700000000000000000102040863
:100080001020408001020408102001020408102002
:10009000040404040404040402020202020203032E
:1000A0000303030300000000250028002B000000CC
:1000B0000000240027002A00961011241FBECFEF55
:1000C000D8E0DEBFCDBF13E0A0E0B1E0E4E3F2E2B0
:1000D00002C005900D92A635B107D9F72FE0A6E52D
:1000E000B3E001C01D92A83EB207E1F710E0CDE5F4
:1000F000D0E004C02197FE010E941211CC35D10737
:10010000C9F70E94350B0C9418117ACFCF93DF9367
:10011000882349F0EB0181500E940D0E998388835A
:10012000DF91CF910895FB0111821082F9CF0F93D7
:100130001F938B019C0183E03695279517950795B2
:100140008A95D1F7015A1C4F462F477021E030E0C5
:10015000F90102C0EE0FFF1F4A95E2F7AF01F80167
:1001600020812423CB010196211102C090E080E080
:100170001F910F9108950F931F938B019C0183E0B2
:1001800036952795179507958A95D1F7677081E081
:1001900090E001C0880F6A95EAF7F801E15AFC4F38
:1001A0002081452B31F48095822380831F910F910C
:1001B0000895822BFACFCF92DF92EF92FF92CF93E6
:1001C000DF936B017C0160E08EE0C816D104E1048E
:1001D000F10490F48EE08C0D0E94AC0EE6012196A5
:1001E000AE01C701B601C7DFCE01DF91CF91FF900D
:1001F000EF90DF90CF9008958C2DEECF882341F0C3
:100200008150682F70E090E080E050E040E0B3CF94
:100210000895CF93282F8823E1F0CB01BA01CFEFC7
:10022000C20FEC2FF0E0E859FC4F2081213059F447
:1002300090580E94430C9B01AC016C2F70E090E041
:1002400080E0CF91A2C00E943E0C8C2FCF910C94E5
:10025000280ECF9108950F931F938B019C0183E08B
:1002600036952795179507958A95D1F70A5A1C4F09
:10027000462F477021E030E0F90102C0EE0FFF1F6A
:100280004A95E2F7AF01F80120812423CB010196C2
:10029000211102C090E080E01F910F9108950F930B
:1002A0001F938B019C0183E0369527951795079541
:1002B0008A95D1F7677081E090E001C0880F6A9558
:1002C000EAF7F801EA5AFC4F2081452B31F480957A
:1002D000822380831F910F910895822BFACF4F9232
:1002E0005F926F927F928F929F92AF92BF92CF92C6
:1002F000DF92EF92FF920F931F93CF93DF934B0107
:100300005C0129013A01670161E0882D0E94AC0E71
:10031000E4012196AE01C501B401C1DF20E030E067
:10032000A901C801B6010E94210D18168CF4F40130
:10033000E859FC4F81E08083C801B6010E94430C5C
:100340006B01C301B2010E94430CA601C40121D07C
:10035000CE01DF91CF911F910F91FF90EF90DF9031
:10036000CF90BF90AF909F908F907F906F905F9055
:100370004F900895882341F08150682F70E090E0FD
:1003800080E050E040E08BCF0895862FB9010C94B7
:10039000280E9C01FC01E859FF4FE491E33061F124
:1003A00040F4E13011F1E23021F160E0822F0C9451
:1003B000E80EE730C1F1E83009F441C0E430A9F7B4
:1003C000809180008C7F826080938000909181007A
:1003D000907E9061692B60938100509387004093D9
:1003E00086008091800080621BC084B5806884BDD7
:1003F000DCCF84B58062FBCF809180008C7F8260EF
:100400008093800090918100907E9061692B609331
:10041000810050938700409386008091800080681F
:1004200080938000C2CF8091B00080688093B0003C
:100430008091B100887F682B6093B100B6CF809126
:10044000B0008062F3CF60E070E080E89FE708953D
:1004500060E070E080E89FE7089560E070E080E889
:100460009FEF089560E070E080E89FEF089560E0FE
:1004700070E080EC9FEF089560E070E080EC9FEF0B
:100480000895F5DF60933A0470933B0480933C0435
:1004900090933D04F1DF60932E0470932F048093BA
:1004A000300490933104CFDF6093360470933704A7
:1004B0008093380490933904CBDF609332047093B7
:1004C00033048093340490933504C7DF60933E0473
:1004D00070933F048093400490934104C3DF609382
:1004E0004204709343048093440490934504089518
:1004F0000F931F938B019C010027112720783F77D2
:100500000115110520483F4749F4AB01BC016F7745
:10051000772781E0452B462B472B09F480E01F917C
:100520000F910895E5CF2F923F924F925F926F9275
:100530007F928F929F92AF92BF92CF92DF92EF9273
:10054000FF920F931F93CF93DF9300D000D000D082
:10055000CDB7DEB76B017C015C834B83FA018480ED
:100560009580A680B780AC019B01C501B4010E94B3
:10057000D20B312C212C18160CF4DFC0F0E8F983D3
:100580008FE38A83EB81FC8140805180628073809D
:10059000A7019601C301B2010E94210D181624F48F
:1005A000312C212C19821A82A7019601C301B201B4
:1005B0000E94D20B181684F1A7019601C501B4015F
:1005C0000E94210D181644F5A3019201C501B40142
:1005D0000E94D20B882301F1A3019201C501B4014D
:1005E0000E946D0B9B01AC0160E070E080E89FE32E
:1005F0000E94D60B4B015C01A3019201C701B60119
:100600000E946D0B9B01AC01C501B4010E94250D38
:10061000362E272E89839A83EB81FC814084518476
:1006200062847384A7019601C301B2010E94210D67
:1006300000E010E087FD84C0F0E8FE838FE38D8347
:10064000EB81FC8184849584A684B784A7019601FC
:10065000C501B4010E94D20B87FF04C000E010E086
:100660001E821D82A7019601C301B2010E94D20B16
:1006700087FF2FC0A7019601C501B4010E94210D7B
:1006800087FD27C0A5019401C301B2010E94D20BCE
:100690008823F9F0A3019201C501B4010E946D0BFA
:1006A0009B01AC0160E070E080E89FE30E94D60B04
:1006B0002B013C01A7019601C501B4010E946D0BFD
:1006C0009B01AC01C301B2010E94250D8B018E83F9
:1006D0009D8398014E815D81632D722D89819A8160
:1006E0000E94D20B181664F4B8018E819D811ADF26
:1006F000811106C0302E212EFE81F9838D818A83DF
:10070000632D722D89819A8126960FB6F894DEBFEB
:100710000FBECDBFDF91CF911F910F91FF90EF9052
:10072000DF90CF90BF90AF909F908F907F906F9011
:100730005F904F903F902F90089519821A8222CF98
:100740001E821D827DCF2F923F924F925F926F92B9
:100750007F928F929F92AF92BF92CF92DF92EF9251
:10076000FF920F931F93CF93DF93CDB7DEB76297BE
:100770000FB6F894DEBF0FBECDBFFC018081918122
:10078000A281B38189839A83AB83BC838481958161
:10079000A681B78189879A87AB87BC878085918539
:1007A000A285B3858D879E87AF87B88B8485958515
:1007B000A685B7858D839E83AF83B88700E011E05F
:1007C000698B7A8B29883A889CE6291A9EEF390A28
:1007D000D801CD90DD90ED90FD908D01A70196019F
:1007E00069857A858B859C85DDD7412C512C32011A
:1007F000181634F0412C512C90E8692E9FE3792E85
:10080000A701960169817A818B819C810E94210DCB
:1008100018161CF4412C512C3201A7019601698154
:100820007A818B819C81BED71816B4F1A7019601FD
:1008300069857A858B859C850E94210D181664F543
:1008400029853A854B855C8569817A818B819C817C
:10085000A9D7882309F129813A814B815C81698577
:100860007A858B859C8539D79B01AC0160E070E06F
:1008700080E89FE39BD74B015C0129813A814B8142
:100880005C81C701B60129D79B01AC01C501B40148
:100890000E94250D2B013C01A70196016D857E85E7
:1008A0008F8598890E94210D812C912C540187FD00
:1008B00006C0812C912C80E8A82E8FE3B82EA701CA
:1008C00096016D817E818F8198856CD787FF03C0EB
:1008D000812C912C5401A70196016D857E858F8511
:1008E000988960D787FF36C0A70196016D817E8108
:1008F0008F8198850E94210D87FD2CC02D813E811E
:100900004F8158856D857E858F8598894BD7882343
:1009100009F12D853E854F8558896D817E818F81B6
:100920009885DBD69B01AC0160E070E080E89FE336
:100930003DD74B015C01A70196016D817E818F81BE
:100940009885CBD69B01AC01C501B4010E94250D51
:100950004B015C01A5019401C301B20123D7181614
:1009600044F1E989FA894082518262827382E9897D
:10097000FA893496FA8BE98BE215F30509F028CF52
:1009800062960FB6F894DEBF0FBECDBFDF91CF9158
:100990001F910F91FF90EF90DF90CF90BF90AF909D
:1009A0009F908F907F906F905F904F903F902F908F
:1009B0000895C501B401B6DD8111D3CFA989BA89E3
:1009C0008D929D92AD92BC921397D1CF4F925F9230
:1009D0006F927F928F929F92AF92BF92CF92DF924F
:1009E000EF92FF92CF93DF9300D000D0CDB7DEB768
:1009F0004B015C014090AE0F5090AF0F6090B00F74
:100A00007090B10FC090B20FD090B30FE090B40FC0
:100A1000F090B50FA7019601C301B201C3D6882398
:100A200009F485C0A5019401C301B201BBD687FFBB
:100A30007EC0A5019401C701B6010E94210D1816C0
:100A40000CF075C0A3019201C701B60146D69B0107
:100A5000AC0160E070E080E89FE3A8D669837A8308
:100A60008B839C83A3019201C501B40136D69B01FF
:100A7000AC0169817A818B819C81E7D72B013C0194
:100A80008091B60F9091B70FA091B80FB091B90FA8
:100A900089839A83AB83BC839C01AD01C701B601F6
:100AA00081D6882309F447C0A5019401C701B60186
:100AB00079D687FF40C029813A814B815C81C5018D
:100AC000B40170D687FF1EC0A701960169817A81A3
:100AD0008B819C8102D69B01AC0160E070E080E8D4
:100AE0009FE364D66B017C01A501940169817A8141
:100AF0008B819C81F2D59B01AC01C701B601A5D7C2
:100B00002B013C01C301B2010F900F900F900F9089
:100B1000DF91CF91FF90EF90DF90CF90BF90AF909B
:100B20009F908F907F906F905F904F900895412C91
:100B3000512C3201A5CFA5019401C701B60132D6CF
:100B40008111E0CF412C512C80E8682E8FE3782E64
:100B5000D9CFFC0191E080917F03811190E09183D6
:100B6000089580917F038F5F883218F480937F030C
:100B7000089510927F0308952F923F924F925F92B3
:100B80006F927F928F929F92AF92BF92CF92DF929D
:100B9000EF92FF920F931F93CF93DF9300D000D07B
:100BA000CDB7DEB76EE070E080E090E0C0DA909301
:100BB000DD0F8093DC0F43E050E0BE016F5F7F4F9D
:100BC000A5DA69817A8190E080E089D6209194024B
:100BD00030919502409196025091970236D720911C
:100BE00098023091990240919A0250919B0275D5DA
:100BF0006093C20F7093C30F8093C40F9093C50F7F
:100C00006FE070E080E090E092DA9093D50F8093EF
:100C1000D40F43E050E0BE016F5F7F4F77DA698108
:100C20007A8190E080E05BD620919C0230919D0219
:100C300040919E0250919F0208D78B019C01009326
:100C4000C60F1093C70F2093C80F3093C90F609140
:100C5000C20F7091C30F8091C40F9091C50F609324
:100C6000BA0F7093BB0F8093BC0F9093BD0F00938E
:100C7000BE0F1093BF0F2093C00F3093C10F10927F
:100C8000CA0F1092CB0F1092CC0F1092CD0F42E3EF
:100C900053E049DC60938E0F70938F0F8093900F19
:100CA0009093910F80E090E0A0EAB0EC8093AE0FBB
:100CB0009093AF0FA093B00FB093B10F80E090E08E
:100CC000A0E2B0E48093B20F9093B30FA093B40F5F
:100CD000B093B50F80E090E0A0E2B1E48093B60F4E
:100CE0009093B70FA093B80FB093B90FC090C20FF5
:100CF000D090C30FE090C40FF090C50FC701B601AC
:100D000065DE6093920F7093930F8093940F90938E
:100D1000950F80E090E0A0EAB0E48093AE0F90934E
:100D2000AF0FA093B00FB093B10F412C512C50E7EF
:100D3000652E51E4752E4092B20F5092B30F60921F
:100D4000B40F7092B50F812C912C68ECA62E61E443
:100D5000B62E8092B60F9092B70FA092B80FB092B5
:100D6000B90FC701B60132DE6093960F7093970FEB
:100D70008093980F9093990F4092AE0F5092AF0FBF
:100D80006092B00F7092B10F8092B20F9092B30F39
:100D9000A092B40FB092B50F80E090E0ACE0B2E466
:100DA0008093B60F9093B70FA093B80FB093B90F7D
:100DB000C701B6010BDE60939A0F70939B0F80936F
:100DC0009C0F90939D0F42E253E0C701B601ABDB4D
:100DD00060939E0F70939F0F8093A00F9093A10F2D
:100DE0006091C60F7091C70F8091C80F9091C90F85
:100DF00042E153E098DB6093A20F7093A30F8093BE
:100E0000A40F9093A50F80E090E0A0EAB1E4809356
:100E1000AE0F9093AF0FA093B00FB093B10F80E0DF
:100E200090E0A8E4B2E48093B20F9093B30FA09344
:100E3000B40FB093B50F80E090E0A0EAB2E48093E5
:100E4000B60F9093B70FA093B80FB093B90FC0909F
:100E5000C60FD090C70FE090C80FF090C90FC70120
:100E6000B601B4DD6093A60F7093A70F8093A80F0F
:100E70009093A90F42E053E0C701B60154DB6093A1
:100E8000AA0F7093AB0F8093AC0F9093AD0F20908F
:100E9000CA0F3090CB0F4090CC0F5090CD0F04EE86
:100EA00012E082E59FE09C838B834C01D801ED9199
:100EB0008D01B4E0EB02F0011124E657F04FC08041
:100EC000D180E280F38020E030E040E85FE3C701BA
:100ED000B60168D487FD06C0C12CD12C40E8E42EB1
:100EE0004FE3F42ED8011E96EC91B4E0EB02F00132
:100EF0001124E256F04F60807180A280B380A70178
:100F00009601B301C5014ED487FF02C0630175018C
:100F1000F401C192D192E192F1924F01A7019601A1
:100F2000C201B101DBD31B012C01F2E0033F1F071B
:100F300009F0BCCF2092CA0F3092CB0F4092CC0F59
:100F40005092CD0FC301D5018093C20F9093C30F70
:100F5000A093C40FB093C50FC092C60FD092C70F15
:100F6000E092C80FF092C90F66E97AE084ED92E052
:100F7000EADB6AE27CE084EC92E0E5DB6EEB7DE0AC
:100F800084EB92E0E0DB32E0232E39E0332EE6E41E
:100F9000F4E09101D9011D921D921D921D929D01B7
:100FA000CD0180579E4FDC014D915D916D917C91FB
:100FB00040835183628373838C569E4FDC014D9135
:100FC0005D916D917C9144835583668377838C56C4
:100FD0009E4FDC014D915D916D917C9140875187D1
:100FE000628773873C96B9E0E230FB0799F605EA21
:100FF00012E0EB81FC8181919191A191B191FC83EF
:10100000EB838093C20F9093C30FA093C40FB09350
:10101000C50F22E0C22E29E0D22EF12CE12CD801FE
:101020008C91F701E80FF11D87FDFA95EE0FFF1F78
:10103000EE0FFF1FEE5BFB4F80809180A280B3809C
:101040008092C60F9092C70FA092C80FB092C90F9E
:101050004090C20F5090C30F6090C40F7090C50FA6
:10106000A3019201C501B401ECD418160CF0AFC075
:101070004092C60F5092C70F6092C80F7092C90F6E
:10108000F60161917191819191916F018090C60FEC
:101090009090C70FA090C80FB090C90FA501940100
:1010A00081D387FF06C0F601349780829182A282A5
:1010B000B382F3E0EF0EF11C8FE2E81681E0F80650
:1010C00009F0ADCF0F5F1F4F92E0043B190709F005
:1010D00090CF20E030E0A9016091CA0F7091CB0F52
:1010E0008091CC0F9091CD0F5DD3811187C080E0AE
:1010F00090E0A0EFB1E48093CA0F9093CB0FA09340
:10110000CC0FB093CD0F65E070E080E090E0A3D805
:101110008C019093E50F8093E40F2091A002309111
:10112000A1024091A2025091A3026091CA0F709156
:10113000CB0F8091CC0F9091CD0F87D46B017C01A8
:1011400020E030E04FE753E42DD318160CF4D1C063
:10115000C092CA0FD092CB0FE092CC0FF092CD0F7D
:1011600020E030E0A9016091CA0F7091CB0F80910F
:10117000CC0F9091CD0F65D487FF08C01092CA0F95
:101180001092CB0F1092CC0F1092CD0F4091CA0F3E
:101190005091CB0F6091CC0F7091CD0FC80139D811
:1011A0000F900F900F900F90DF91CF911F910F91A3
:1011B000FF90EF90DF90CF90BF90AF909F908F9077
:1011C0007F906F905F904F903F902F900895C50152
:1011D000B401A8D9882309F453CF8091C20F90910C
:1011E000C30FA091C40FB091C50F8093C60F909309
:1011F000C70FA093C80FB093C90F42CF1092CA0F68
:101200001092CB0F1092CC0F1092CD0F1092C20FF4
:101210001092C30F1092C40F1092C50F86E9A82E2A
:101220008AE0B82E02E019E0C12CD12C7601D80159
:101230002D913D914D915D918D01C701B6014ED229
:101240006B017C01A016B10691F7C092C20FD0923B
:10125000C30FE092C40FF092C50F20E030E0A90167
:10126000A1D281111FC02091000130910101409154
:10127000020150910301609190027091910280915E
:101280009202909193022AD220E030E040E05FE3A6
:10129000DCD36093CA0F7093CB0F8093CC0F9093E5
:1012A000CD0F31CF00E011E0812C912C5401F801D9
:1012B00061917191819191918F01D1012D913D9118
:1012C0004D915D911D01C1D39B01AC01C501B401DC
:1012D00005D24B015C01B2E004391B0741F7A701BD
:1012E000960160E070E080E89FE360D2A501940180
:1012F000CFCF80E090E0AFE7B3E48093CA0F909344
:10130000CB0FA093CC0FB093CD0F2ACF8F929F928B
:10131000AF92BF92DF92EF92FF920F931F93CF9302
:10132000DF9384E090E0ADD8CEECDFE01886812C2E
:10133000912C5401839489869A86AB86BC866EE094
:1013400070E080E090E00E94DB009F878E87DD24C4
:10135000D394DD86188289829A82AB82BC826FE048
:1013600070E080E090E00E94DB009F838E83DD824E
:10137000188A898A9A8AAB8ABC8AE12CF12C870167
:10138000A801970165E070E080E090E00E946F01A5
:101390009F8B8E8BDD8ADF91CF911F910F91FF90F4
:1013A000EF90DF90BF90AF909F908F9008958091C5
:1013B000D60F81111FC081E08093D60F8091D70F87
:1013C0009091D80FA091D90FB091DA0F0197A10594
:1013D000B10581F48091DB0F882361F06EE070E04D
:1013E00080E090E00E9497009093DD0F8093DC0FE7
:1013F0000E94FE008091CE0F81111FC081E080937A
:10140000CE0F8091CF0F9091D00FA091D10FB091BE
:10141000D20F0197A105B10581F48091D30F8823E4
:1014200061F06FE070E080E090E00E9497009093A0
:10143000D50F8093D40F0E94FE008091DE0F8111A2
:101440002EC081E08093DE0F8091DF0F9091E00F3E
:10145000A091E10FB091E20F0197A105B105F9F458
:101460008091E30F8823D9F065E070E080E090E0A0
:101470000E942B019093E50F8093E40F40E050E031
:10148000BA010E94090165E070E080E090E00E94EE
:101490002B019093E50F8093E40F0C94BA0108950B
:1014A000089526E030E040E855E260E070E090E02A
:1014B00080E000C010928103109280038930910572
:1014C000E0F48B59954FFC01ADC66E0A770A7E0A8F
:1014D000810A840A870A8A0A8D0A930A81E090E0C9
:1014E000909381038093800381E993E068C582E053
:1014F00090E09093810380938003089584E090E0CE
:10150000F8CF88E090E0F5CF80E190E0F2CF80E284
:1015100090E0EFCF80E490E0ECCF80E890E0909313
:101520008103809380038091800390918103916077
:10153000E0CF1F920F920FB60F9211242F933F937B
:101540004F935F936F937F938F939F93AF93BF93CB
:10155000EF93FF938BEC93EF90938500809384003F
:1015600032D0FF91EF91BF91AF919F918F917F9179
:101570006F915F914F913F912F910F900FBE0F9000
:101580001F9018958BEC93EF9093850080938400C7
:10159000AFE6B0E08C918E7F8C93E0E8F0E0808144
:1015A0008C7F8083E1E8F0E08081877E808380818A
:1015B0008460808380818C7F80838C9181608C9318
:1015C000089581E00895CF93DF9300D0CDB7DEB7C3
:1015D0008091840391E0980F90938403882369F0AD
:1015E00021E030E0309387032093860380938403C7
:1015F0000F900F90DF91CF910895CE010196A9DA57
:101600007894AFDAF89480918403815080938403B6
:101610008A81882389F08091830391E0980F9093C9
:101620008303882349F021E030E03093870320933F
:10163000860380938303DCCF809183038823C1F2E8
:10164000809185038111D4CF81E0809385037894C4
:1016500093DAF8948091830381508093830380917F
:101660008503815080938503C3CFCF93DF9310927E
:10167000E70F1092E60F96D214DFC0914203D0918B
:1016800043031982188242DEF8947CDF2881398175
:1016900081E0232B09F080E08093E60F7894789422
:1016A0008091E60F811107C082DEF89490E080E01F
:1016B000DF91CF9108952881398181E0232B09F4AE
:1016C00080E08093E70F9091E70F81E0911180E037
:1016D0008093E60F76DFE4DEE3CF5058BB27AA27DE
:1016E0000ED075C166D130F06BD120F031F49F3F40
:1016F00011F41EF45BC10EF4E095E7FB51C1E92F34
:1017000077D180F3BA17620773078407950718F03B
:1017100071F49EF58FC10EF4E0950B2EBA2FA02D1B
:101720000B01B90190010C01CA01A0011124FF278E
:10173000591B99F0593F50F4503E68F11A16F04089
:10174000A22F232F342F4427585FF3CF4695379588
:101750002795A795F0405395C9F77EF41F16BA0B4D
:10176000620B730B840BBAF09150A1F0FF0FBB1FFB
:10177000661F771F881FC2F70EC0BA0F621F731F44
:10178000841F48F4879577956795B795F7959E3FA1
:1017900008F0B3CF9395880F08F09927EE0F97952F
:1017A00087950895D9D008F481E008950CD00FC131
:1017B00007D140F0FED030F021F45F3F19F0F0C0C7
:1017C000511139C1F3C014D198F39923C9F35523AA
:1017D000B1F3951B550BBB27AA2762177307840724
:1017E00038F09F5F5F4F220F331F441FAA1FA9F3DA
:1017F00033D00E2E3AF0E0E830D091505040E695CC
:10180000001CCAF729D0FE2F27D0660F771F881F2C
:10181000BB1F261737074807AB07B0E809F0BB0B1B
:10182000802DBF01FF2793585F4F2AF09E3F51053F
:1018300068F0B6C000C15F3FECF3983EDCF38695DC
:1018400077956795B795F7959F5FC9F7880F911DB5
:101850009695879597F90895E1E0660F771F881FA1
:10186000BB1F621773078407BA0720F0621B730B54
:10187000840BBA0BEE1F88F7E095089504D06894A6
:10188000B111D9C00895BCD088F09F5790F0B92FFE
:101890009927B751A0F0D1F0660F771F881F991FC5
:1018A0001AF0BA95C9F712C0B13081F0C3D0B1E0D7
:1018B0000895C0C0672F782F8827B85F39F0B93FE7
:1018C000CCF3869577956795B395D9F73EF49095C7
:1018D0008095709561957F4F8F4F9F4F0895E89445
:1018E00009C097FB3EF490958095709561957F4F68
:1018F0008F4F9F4F9923A9F0F92F96E9BB27939516
:10190000F695879577956795B795F111F8CFFAF425
:10191000BB0F11F460FF1BC06F5F7F4F8F4F9F4F56
:1019200016C0882311F096E911C0772321F09EE8B4
:10193000872F762F05C0662371F096E8862F70E01A
:1019400060E02AF09A95660F771F881FDAF7880FF4
:101950009695879597F90895990F0008550FAA0B4A
:10196000E0E8FEEF16161706E807F907C0F01216B2
:101970001306E407F50798F0621B730B840B950BB5
:1019800039F40A2661F0232B242B252B21F408950A
:101990000A2609F4A140A6958FEF811D811D0895A7
:1019A00097F99F6780E870E060E008959FEF80EC12
:1019B000089500240A9416161706180609060895B5
:1019C00000240A9412161306140605060895092E1B
:1019D0000394000C11F4882352F0BB0F40F4BF2B8A
:1019E00011F460FF04C06F5F7F4F8F4F9F4F0895CA
:1019F00057FD9058440F551F59F05F3F71F04795C0
:101A0000880F97FB991F61F09F3F79F087950895A4
:101A1000121613061406551FF2CF4695F1DF08C0C3
:101A2000161617061806991FF1CF869571056105E0
:101A300008940895E894BB2766277727CB0197F988
:101A400008958ADF08F48FEF08950BD0C0CFB1DF7F
:101A500028F0B6DF18F0952309F0A2CFA7CF112404
:101A6000EACFC6DFA0F3959FD1F3950F50E0551F45
:101A7000629FF001729FBB27F00DB11D639FAA27E3
:101A8000F00DB11DAA1F649F6627B00DA11D661F32
:101A9000829F2227B00DA11D621F739FB00DA11D53
:101AA000621F839FA00D611D221F749F3327A00D0D
:101AB000611D231F849F600D211D822F762F6A2FA9
:101AC00011249F5750408AF0E1F088234AF0EE0F2E
:101AD000FF1FBB1F661F771F881F91505040A9F73B
:101AE0009E3F510570F05CCFA6CF5F3FECF3983E70
:101AF000DCF3869577956795B795F795E7959F5FA2
:101B0000C1F7FE2B880F911D9695879597F908953B
:101B10001F920F920FB60F9211242F933F938F9322
:101B20009F93AF93BF938091890390918A03A09173
:101B30008B03B0918C033091880323E0230F2D3762
:101B400058F50196A11DB11D209388038093890348
:101B500090938A03A0938B03B0938C0380918D03A1
:101B600090918E03A0918F03B09190030196A11DD7
:101B7000B11D80938D0390938E03A0938F03B09338
:101B80009003BF91AF919F918F913F912F910F90B3
:101B90000FBE0F901F90189526E8230F0296A11DE7
:101BA000B11DD2CF789484B5826084BD84B5816044
:101BB00084BD85B5826085BD85B5816085BDEEE655
:101BC000F0E0808181608083E1E8F0E01082808134
:101BD00082608083808181608083E0E8F0E08081A2
:101BE00081608083E1EBF0E0808184608083E0EBC2
:101BF000F0E0808181608083EAE7F0E080818460AA
:101C00008083808182608083808181608083808105
:101C1000806880831092C10008958E3008F08E5045
:101C20002091A40290E4299F900111248770822BB7
:101C300080937C0080917A00806480937A00809108
:101C40007A0086FDFCCF809178009091790008950C
:101C50001F93CF93DF93182FEB0161E07DD0209786
:101C600031F460E0812FDF91CF911F91B1C0CF3F60
:101C7000D10511F461E0F6CFE12FF0E0E859FF4F14
:101C8000E491E33031F140F4E130B1F0E230E1F0E1
:101C9000C038D1057CF7E5CFE73029F1E83059F1BC
:101CA000E430B1F780918000806280938000D0930F
:101CB0008B00C0938A0004C084B5806884BDC7BD12
:101CC000DF91CF911F91089584B5806284BDC8BD16
:101CD000F7CF80918000806880938000D093890046
:101CE000C0938800EDCF8091B00080688093B000F1
:101CF000C093B300E5CF8091B00080628093B000C4
:101D0000C093B400DDCF833081F028F4813099F0A6
:101D10008230A9F008958730A9F08830C9F0843066
:101D2000B1F4809180008F7D03C0809180008F7717
:101D300080938000089584B58F7784BD089584B51D
:101D40008F7DFBCF8091B0008F778093B000089596
:101D50008091B0008F7DF9CFCF93DF9390E0FC01AD
:101D6000E458FF4F249180579F4FFC0184918823B2
:101D7000C9F090E0880F991FFC01E255FF4FA59133
:101D8000B491FC01EC55FF4FC591D49161110DC088
:101D90009FB7F8948C91209582238C938881282377
:101DA00028839FBFDF91CF910895623051F49FB790
:101DB000F8943C91822F809583238C93E8812E2B7D
:101DC000EFCF8FB7F894EC912E2B2C938FBFEACFE7
:101DD0001F93CF93DF93282F30E0F901E859FF4F8D
:101DE0008491F901E458FF4FD491F901E057FF4F76
:101DF000C491CC23A1F0162F811185DFEC2FF0E0E8
:101E0000EE0FFF1FEC55FF4FA591B4918FB7F894DB
:101E1000EC91111108C0D095DE23DC938FBFDF91C8
:101E2000CF911F910895DE2BF8CFFC01918D228D6B
:101E3000892F90E0805C9F4F821B91098F739927B7
:101E40000895FC01918D828D981731F0828DE80FF5
:101E5000F11D858D90E008958FEF9FEF0895FC01AF
:101E6000918D828D981761F0A28DAE0FBF2FB11D9D
:101E70005D968C91928D9F5F9F73928F90E00895F5
:101E80008FEF9FEF0895FC01538D448D252F30E097
:101E9000842F90E0821B930B541710F0CF96089577
:101EA00001970895FC01A48DA80FB92FB11DA35A65
:101EB000BF4F2C91848D90E001968F739927848F6A
:101EC000A689B7892C93A089B1898C91837080648D
:101ED0008C93938D848D981306C00288F389E02D2E
:101EE00080818F7D80830895CF93DF93EC01888D6F
:101EF0008823B1F0AA89BB89E889F9898C9185FD8D
:101F000003C0808186FD0CC00FB607FCF7CF8C9113
:101F100085FFF2CF808185FFEDCFCE01C3DFEACF11
:101F2000DF91CF910895EF92FF920F931F93CF937C
:101F3000DF93EC0181E0888F9B8D8C8D98131AC004
:101F4000E889F989808185FF15C09FB7F894EE89EB
:101F5000FF896083E889F989808183708064808348
:101F60009FBF81E090E0DF91CF911F910F91FF9093
:101F7000EF900895F62E0B8D10E00F5F1F4F0F733B
:101F80001127E02E8C8D8E110BC00FB607FCFACFF7
:101F9000E889F989808185FFF5CFCE0183DFF2CF13
:101FA000EB8DEC0FFD2FF11DE35AFF4FF0829FB731
:101FB000F8940B8FEA89FB8980818062D0CFCF9221
:101FC000DF92EF92FF921F93CF93DF93EC016A01B0
:101FD0007B01122FE889F98982E08083C11481EEA8
:101FE000D806E104F10499F060E079E08DE390E037
:101FF000A7019601F5D021503109410951095695A3
:10200000479537952795211580E1380790F0E889A5
:10201000F989108260E874E88EE190E0A7019601EA
:10202000DFD021503109410951095695479537951F
:102030002795EC85FD853083EE85FF852083188EFE
:10204000EC89FD891083EA89FB8980818061808326
:10205000EA89FB89808188608083EA89FB898081A5
:1020600080688083EA89FB8980818F7D8083DF910E
:10207000CF911F91FF90EF90DF90CF9008951F9226
:102080000F920FB60F9211242F938F939F93EF937C
:10209000FF93E091A103F091A2038081E091A70357
:1020A000F091A80382FD1BC090818091AA038F5FED
:1020B0008F732091AB03821741F0E091AA03F0E007
:1020C000EF56FC4F958F8093AA03FF91EF919F915C
:1020D0008F912F910F900FBE0F901F9018958081B8
:1020E000F4CF1F920F920FB60F9211242F933F93AC
:1020F0004F935F936F937F938F939F93AF93BF9310
:10210000EF93FF9381E993E0CDDEFF91EF91BF91D3
:10211000AF919F918F917F916F915F914F913F917F
:102120002F910F900FBE0F901F901895E1E9F3E0EB
:102130001382128288EE93E0A0E0B0E0848395835E
:10214000A683B78388E493E09183808385EC90E055
:102150009587848784EC90E09787868780EC90E071
:10216000918B808B81EC90E0938B828B82EC90E062
:10217000958B848B86EC90E0978B868B118E128EDC
:10218000138E148E0895AF92BF92CF92DF92EF928A
:10219000FF920F931F93CF93DF936C017B018B0111
:1021A000040F151FEB015E01AE18BF08C017D10761
:1021B00059F06991D601ED91FC910190F081E02DEB
:1021C000C6010995892B79F7C501DF91CF911F9140
:1021D0000F91FF90EF90DF90CF90BF90AF90089558
:1021E000A1E21A2EAA1BBB1BFD010DC0AA1FBB1F1B
:1021F000EE1FFF1FA217B307E407F50720F0A21B8D
:10220000B30BE40BF50B661F771F881F991F1A94F9
:1022100069F760957095809590959B01AC01BD0123
:10222000CF010895EE0FFF1F0590F491E02D099462
:04223000F894FFCF50
:10223400000000009A99193F9A99993F6666E63F13
:102244009A9919400000404066666640666686407A
:102254009A999940CDCCAC400000C0403333D34070
:102264006666E6409A99F9406666064100001041A8
:102274009A99194133332341CDCC2C4166663641BA
:10228400000040419A99494133335341CDCC5C41DC
:1022940066666641000070419A9979419A99814134
:1022A4006666864133338B4100009041CDCC944126
:1022B4009A99994166669E413333A3410000A8412F
:1022C400CDCCAC419A99B1416666B6413333BB413A
:1022D4000000C041CDCCC4419A99C9416666CE4143
:1022E4003333D3410000D841CDCCDC419A99E1414C
:1022F4006666E6413333EB410000F041CDCCF44156
:102304009A99F9416666FE419A9901420000044295
:1023140066660642CDCC084233330B429A990D428D
:102324000000104266661242CDCC14423333174289
:102334009A99194200001C4266661E42CDCC204286
:10234400333323429A9925420000284266662A4282
:10235400CDCC2C4233332F429A993142000034427F
:1023640066663642CDCC384233333B429A993D427D
:102374000000404266664242CDCC44423333474279
:102384009A99494200004C4266664E42CDCC504276
:10239400333353429A9955420000584266665A4272
:1023A400CDCC5C4233335F429A996142000064426F
:1023B40066666642CDCC684233336B429A996D426D
:1023C40000007042E92B483D0000204182E2C73DF5
:1023D400000088400101010203030101020202021C
:1023E4000202010100002042000048420000704245
:1023F40000007042000020410000C84100000C426F
:1024040000004842000000000000000000002041DD
:102414000000A041010203040501020304050102B6
:102424000304050101010101020202020203030384
:10243400030300008C420000B4420000C8420000C4
:10244400C84200000000000000000000204100001D
:10245400F0410000F04100000C4200002042000066
:102464002042000020C1000020C10000A0C00000E4
:1024740020407C0300000000930FC310430F740F2F
:06248400150F2F0F210FC0
:00000001FF
